{
  "address": "0xb9e847f664227f883bcE636268D286D38803ec15",
  "abi": [
    {
      "inputs": [
        {
          "internalType": "address",
          "name": "_owner",
          "type": "address"
        },
        {
          "internalType": "bytes32",
          "name": "_schemaID",
          "type": "bytes32"
        }
      ],
      "stateMutability": "nonpayable",
      "type": "constructor"
    },
    {
      "inputs": [],
      "name": "AlreadyWhitelisted",
      "type": "error"
    },
    {
      "inputs": [],
      "name": "InvalidEAS",
      "type": "error"
    },
    {
      "inputs": [],
      "name": "NotEnoughBalance",
      "type": "error"
    },
    {
      "inputs": [],
      "name": "NotWhitelisted",
      "type": "error"
    },
    {
      "inputs": [],
      "name": "OnlyTeamMember",
      "type": "error"
    },
    {
      "inputs": [],
      "name": "TeamNotExists",
      "type": "error"
    },
    {
      "anonymous": false,
      "inputs": [
        {
          "indexed": true,
          "internalType": "address",
          "name": "previousOwner",
          "type": "address"
        },
        {
          "indexed": true,
          "internalType": "address",
          "name": "newOwner",
          "type": "address"
        }
      ],
      "name": "OwnershipTransferred",
      "type": "event"
    },
    {
      "inputs": [
        {
          "internalType": "uint256",
          "name": "teamId",
          "type": "uint256"
        },
        {
          "internalType": "address",
          "name": "_address",
          "type": "address"
        }
      ],
      "name": "addMember",
      "outputs": [],
      "stateMutability": "nonpayable",
      "type": "function"
    },
    {
      "inputs": [
        {
          "internalType": "uint256",
          "name": "teamId",
          "type": "uint256"
        },
        {
          "internalType": "address",
          "name": "_recipient",
          "type": "address"
        },
        {
          "internalType": "uint8",
          "name": "rateAmount",
          "type": "uint8"
        }
      ],
      "name": "assignRate",
      "outputs": [
        {
          "internalType": "bytes32",
          "name": "",
          "type": "bytes32"
        }
      ],
      "stateMutability": "nonpayable",
      "type": "function"
    },
    {
      "inputs": [
        {
          "internalType": "address[]",
          "name": "_whitelist",
          "type": "address[]"
        }
      ],
      "name": "createTeam",
      "outputs": [
        {
          "internalType": "uint256",
          "name": "",
          "type": "uint256"
        }
      ],
      "stateMutability": "nonpayable",
      "type": "function"
    },
    {
      "inputs": [
        {
          "internalType": "uint256",
          "name": "teamId",
          "type": "uint256"
        },
        {
          "internalType": "uint256",
          "name": "totalGrant",
          "type": "uint256"
        }
      ],
      "name": "distributeGrant",
      "outputs": [],
      "stateMutability": "nonpayable",
      "type": "function"
    },
    {
      "inputs": [
        {
          "internalType": "address",
          "name": "_address",
          "type": "address"
        }
      ],
      "name": "getTeamsByAddress",
      "outputs": [
        {
          "internalType": "uint256[]",
          "name": "",
          "type": "uint256[]"
        }
      ],
      "stateMutability": "view",
      "type": "function"
    },
    {
      "inputs": [],
      "name": "getTotalTeams",
      "outputs": [
        {
          "internalType": "uint256[]",
          "name": "",
          "type": "uint256[]"
        }
      ],
      "stateMutability": "view",
      "type": "function"
    },
    {
      "inputs": [],
      "name": "owner",
      "outputs": [
        {
          "internalType": "address",
          "name": "",
          "type": "address"
        }
      ],
      "stateMutability": "view",
      "type": "function"
    },
    {
      "inputs": [],
      "name": "renounceOwnership",
      "outputs": [],
      "stateMutability": "nonpayable",
      "type": "function"
    },
    {
      "inputs": [],
      "name": "schemaID",
      "outputs": [
        {
          "internalType": "bytes32",
          "name": "",
          "type": "bytes32"
        }
      ],
      "stateMutability": "view",
      "type": "function"
    },
    {
      "inputs": [
        {
          "internalType": "address",
          "name": "newOwner",
          "type": "address"
        }
      ],
      "name": "transferOwnership",
      "outputs": [],
      "stateMutability": "nonpayable",
      "type": "function"
    },
    {
      "inputs": [
        {
          "internalType": "address",
          "name": "",
          "type": "address"
        },
        {
          "internalType": "uint256",
          "name": "",
          "type": "uint256"
        }
      ],
      "name": "userCounter",
      "outputs": [
        {
          "internalType": "uint256",
          "name": "",
          "type": "uint256"
        }
      ],
      "stateMutability": "view",
      "type": "function"
    },
    {
      "stateMutability": "payable",
      "type": "receive"
    }
  ],
  "transactionHash": "0x02b2051fae3f7267a194fd64595e14aec9320ff8e125eb907d0eb8d91cb75bbc",
  "args": [
    "0xf5Ac0b87325Bf1B3Eee525EB9646faFD69D2FedC",
    "0x53a2b8d5fcfee24fa5e92ce4dfebbea22ad32dfa1d4d6945c59a9365228646fd"
  ],
  "numDeployments": 4,
  "solcInputHash": "da344e8a51b49d17eae28235149ea640",
  "bytecode": "0x6080604052600680546001600160a01b031990811673aef4103a04090071165f78d45d83a0c0782c2b2a17909155600780549091167355d26f9ae0203ef95494ae4c170ed35f4cf777971790553480156200005957600080fd5b5060405162001178380380620011788339810160408190526200007c91620001cd565b62000087336200009c565b6200009282620000ec565b6008555062000209565b600080546001600160a01b038381166001600160a01b0319831681178455604051919092169283917f8be0079c531659141344cd1fd0a4f28419497f9722a3daafe3b4186f6b6457e09190a35050565b620000f66200016f565b6001600160a01b038116620001615760405162461bcd60e51b815260206004820152602660248201527f4f776e61626c653a206e6577206f776e657220697320746865207a65726f206160448201526564647265737360d01b60648201526084015b60405180910390fd5b6200016c816200009c565b50565b6000546001600160a01b03163314620001cb5760405162461bcd60e51b815260206004820181905260248201527f4f776e61626c653a2063616c6c6572206973206e6f7420746865206f776e6572604482015260640162000158565b565b60008060408385031215620001e157600080fd5b82516001600160a01b0381168114620001f957600080fd5b6020939093015192949293505050565b610f5f80620002196000396000f3fe6080604052600436106100a05760003560e01c80638c20cad0116100645780638c20cad01461017b5780638da5cb5b14610190578063ba2b7f21146101b8578063f2fde38b146101d8578063fd1308a6146101f8578063fd6d90da1461020e57600080fd5b80630c44ab46146100ac5780632fee1aa9146100df5780636b13a2ad14610117578063715018a61461014457806374d0a6761461015b57600080fd5b366100a757005b600080fd5b3480156100b857600080fd5b506100cc6100c7366004610ae9565b61022e565b6040519081526020015b60405180910390f35b3480156100eb57600080fd5b506100cc6100fa366004610b2f565b600560209081526000928352604080842090915290825290205481565b34801561012357600080fd5b50610137610132366004610b59565b610497565b6040516100d69190610b74565b34801561015057600080fd5b50610159610503565b005b34801561016757600080fd5b50610159610176366004610bb8565b610517565b34801561018757600080fd5b506101376105cd565b34801561019c57600080fd5b506000546040516001600160a01b0390911681526020016100d6565b3480156101c457600080fd5b506101596101d3366004610be4565b610625565b3480156101e457600080fd5b506101596101f3366004610b59565b6108b0565b34801561020457600080fd5b506100cc60085481565b34801561021a57600080fd5b506100cc610229366004610c49565b610929565b60008381526001602090815260408083206001600160a01b038616845290915281205460ff166102a55760405162461bcd60e51b815260206004820152601f60248201527f526563697069656e74206d7573742062652061207465616d206d656d6265720060448201526064015b60405180910390fd5b6001600160a01b03831660009081526005602090815260408083208784529091528120805460ff851692906102db908490610d0d565b90915550506001600160a01b03838116600081815260056020908152604080832089845282528083205481518084018b905280830186905260608082019290925282518082038301815260065460c0808401865260085460808086019182528751928301885299825296810188905260018187015293840187905296830181905260a0808401969096529401525163f17325e760e01b81529193929092169163f17325e79161038d9190600401610d6c565b6020604051808303816000875af19250505080156103c8575060408051601f3d908101601f191682019092526103c591810190610def565b60015b610487576103d4610e08565b806308c379a00361040d57506103e8610e24565b806103f3575061040f565b8060405162461bcd60e51b815260040161029c9190610eae565b505b3d808015610439576040519150601f19603f3d011682016040523d82523d6000602084013e61043e565b606091505b5060405162461bcd60e51b815260206004820152601f60248201527f4174746573746174696f6e206661696c656420756e65787065637465646c7900604482015260640161029c565b91506104909050565b9392505050565b6001600160a01b0381166000908152600460209081526040918290208054835181840281018401909452808452606093928301828280156104f757602002820191906000526020600020905b8154815260200190600101908083116104e3575b50505050509050919050565b61050b610a28565b6105156000610a82565b565b61051f610a28565b60008281526001602090815260408083206001600160a01b038516845290915290205460ff166105b45760008281526001602081815260408084206001600160a01b038616808652818452828620805460ff191686179055908401805480860182559086528386200180546001600160a01b031916821790558452600482528320805492830181558352909120018290555050565b60405163b73e95e160e01b815260040160405180910390fd5b6060600280548060200260200160405190810160405280929190818152602001828054801561061b57602002820191906000526020600020905b815481526020019060010190808311610607575b5050505050905090565b61062d610a28565b6003548211156106755760405162461bcd60e51b81526020600482015260136024820152721519585b48191bd95cc81b9bdd08195e1a5cdd606a1b604482015260640161029c565b600082815260016020818152604080842090920180548351818402810184019094528084528493928301828280156106d657602002820191906000526020600020905b81546001600160a01b031681526001909101906020018083116106b8575b5050505050905060005b815181101561074e57600560008383815181106106ff576106ff610ec1565b60200260200101516001600160a01b03166001600160a01b03168152602001908152602001600020600086815260200190815260200160002054836107449190610d0d565b92506001016106e0565b506000821161079f5760405162461bcd60e51b815260206004820152601760248201527f4e6f20706f696e747320746f2064697374726962757465000000000000000000604482015260640161029c565b60005b81518110156108a95760008282815181106107bf576107bf610ec1565b6020908102919091018101516001600160a01b03811660009081526005835260408082208a83529093529182205490925085906107fd908890610ed7565b6108079190610eee565b90506000826001600160a01b03168260405160006040518083038185875af1925050503d8060008114610856576040519150601f19603f3d011682016040523d82523d6000602084013e61085b565b606091505b505090508061089e5760405162461bcd60e51b815260206004820152600f60248201526e151c985b9cd9995c8819985a5b1959608a1b604482015260640161029c565b5050506001016107a2565b5050505050565b6108b8610a28565b6001600160a01b03811661091d5760405162461bcd60e51b815260206004820152602660248201527f4f776e61626c653a206e6577206f776e657220697320746865207a65726f206160448201526564647265737360d01b606482015260840161029c565b61092681610a82565b50565b6000610933610a28565b6003805490600061094383610f10565b90915550506003546002805460018101825560009182527f405787fa12a823e0f2b7631cc41b3ba8828b3321ca811111fa75cd3aa3bb5ace018290555b8351811015610a1f57600084828151811061099d5761099d610ec1565b6020908102919091018101516000858152600180845260408083206001600160a01b03909416808452848652818420805460ff191684179055938201805480840182559084528584200180546001600160a01b031916851790559282526004845291812080548084018255908252929020909101849055919091019050610980565b5090505b919050565b6000546001600160a01b031633146105155760405162461bcd60e51b815260206004820181905260248201527f4f776e61626c653a2063616c6c6572206973206e6f7420746865206f776e6572604482015260640161029c565b600080546001600160a01b038381166001600160a01b0319831681178455604051919092169283917f8be0079c531659141344cd1fd0a4f28419497f9722a3daafe3b4186f6b6457e09190a35050565b80356001600160a01b0381168114610a2357600080fd5b600080600060608486031215610afe57600080fd5b83359250610b0e60208501610ad2565b9150604084013560ff81168114610b2457600080fd5b809150509250925092565b60008060408385031215610b4257600080fd5b610b4b83610ad2565b946020939093013593505050565b600060208284031215610b6b57600080fd5b61049082610ad2565b6020808252825182820181905260009190848201906040850190845b81811015610bac57835183529284019291840191600101610b90565b50909695505050505050565b60008060408385031215610bcb57600080fd5b82359150610bdb60208401610ad2565b90509250929050565b60008060408385031215610bf757600080fd5b50508035926020909101359150565b634e487b7160e01b600052604160045260246000fd5b601f8201601f1916810167ffffffffffffffff81118282101715610c4257610c42610c06565b6040525050565b60006020808385031215610c5c57600080fd5b823567ffffffffffffffff80821115610c7457600080fd5b818501915085601f830112610c8857600080fd5b813581811115610c9a57610c9a610c06565b8060051b9150604051610caf85840182610c1c565b81815291830184019184810188841115610cc857600080fd5b938501935b83851015610ceb57610cde85610ad2565b8152938501938501610ccd565b50979650505050505050565b634e487b7160e01b600052601160045260246000fd5b80820180821115610d2057610d20610cf7565b92915050565b6000815180845260005b81811015610d4c57602081850181015186830182015201610d30565b506000602082860101526020601f19601f83011685010191505092915050565b60208152815160208201526000602083015160408084015260018060a01b03815116606084015267ffffffffffffffff60208201511660808401526040810151151560a0840152606081015160c0840152608081015160c060e0850152610dd7610120850182610d26565b905060a0820151610100850152809250505092915050565b600060208284031215610e0157600080fd5b5051919050565b600060033d1115610e215760046000803e5060005160e01c5b90565b600060443d1015610e325790565b6040516003193d81016004833e81513d67ffffffffffffffff8160248401118184111715610e6257505050505090565b8285019150815181811115610e7a5750505050505090565b843d8701016020828501011115610e945750505050505090565b610ea360208286010187610c1c565b509095945050505050565b6020815260006104906020830184610d26565b634e487b7160e01b600052603260045260246000fd5b8082028115828204841417610d2057610d20610cf7565b600082610f0b57634e487b7160e01b600052601260045260246000fd5b500490565b600060018201610f2257610f22610cf7565b506001019056fea2646970667358221220d2b8cdfeb6ef0d7dce9b1271c4a1d7b0591d094dd83544dd691aea898f608d2564736f6c63430008170033",
  "devdoc": {
    "kind": "dev",
    "methods": {
      "owner()": {
        "details": "Returns the address of the current owner."
      },
      "renounceOwnership()": {
        "details": "Leaves the contract without owner. It will not be possible to call `onlyOwner` functions. Can only be called by the current owner. NOTE: Renouncing ownership will leave the contract without an owner, thereby disabling any functionality that is only available to the owner."
      },
      "transferOwnership(address)": {
        "details": "Transfers ownership of the contract to a new account (`newOwner`). Can only be called by the current owner."
      }
    },
    "version": 1
  },
  "userdoc": {
    "kind": "user",
    "methods": {},
    "version": 1
  },
  "storageLayout": {
    "storage": [
      {
        "astId": 503,
        "contract": "contracts/GroupRating.sol:GroupRating",
        "label": "_owner",
        "offset": 0,
        "slot": "0",
        "type": "t_address"
      },
      {
        "astId": 672,
        "contract": "contracts/GroupRating.sol:GroupRating",
        "label": "teams",
        "offset": 0,
        "slot": "1",
        "type": "t_mapping(t_uint256,t_struct(Team)667_storage)"
      },
      {
        "astId": 675,
        "contract": "contracts/GroupRating.sol:GroupRating",
        "label": "teamIds",
        "offset": 0,
        "slot": "2",
        "type": "t_array(t_uint256)dyn_storage"
      },
      {
        "astId": 677,
        "contract": "contracts/GroupRating.sol:GroupRating",
        "label": "teamCounter",
        "offset": 0,
        "slot": "3",
        "type": "t_uint256"
      },
      {
        "astId": 682,
        "contract": "contracts/GroupRating.sol:GroupRating",
        "label": "addressToTeams",
        "offset": 0,
        "slot": "4",
        "type": "t_mapping(t_address,t_array(t_uint256)dyn_storage)"
      },
      {
        "astId": 688,
        "contract": "contracts/GroupRating.sol:GroupRating",
        "label": "userCounter",
        "offset": 0,
        "slot": "5",
        "type": "t_mapping(t_address,t_mapping(t_uint256,t_uint256))"
      },
      {
        "astId": 694,
        "contract": "contracts/GroupRating.sol:GroupRating",
        "label": "_eas",
        "offset": 0,
        "slot": "6",
        "type": "t_contract(IEAS)372"
      },
      {
        "astId": 700,
        "contract": "contracts/GroupRating.sol:GroupRating",
        "label": "_schemaregistry",
        "offset": 0,
        "slot": "7",
        "type": "t_contract(ISchemaRegistry)425"
      },
      {
        "astId": 702,
        "contract": "contracts/GroupRating.sol:GroupRating",
        "label": "schemaID",
        "offset": 0,
        "slot": "8",
        "type": "t_bytes32"
      }
    ],
    "types": {
      "t_address": {
        "encoding": "inplace",
        "label": "address",
        "numberOfBytes": "20"
      },
      "t_array(t_address)dyn_storage": {
        "base": "t_address",
        "encoding": "dynamic_array",
        "label": "address[]",
        "numberOfBytes": "32"
      },
      "t_array(t_uint256)dyn_storage": {
        "base": "t_uint256",
        "encoding": "dynamic_array",
        "label": "uint256[]",
        "numberOfBytes": "32"
      },
      "t_bool": {
        "encoding": "inplace",
        "label": "bool",
        "numberOfBytes": "1"
      },
      "t_bytes32": {
        "encoding": "inplace",
        "label": "bytes32",
        "numberOfBytes": "32"
      },
      "t_contract(IEAS)372": {
        "encoding": "inplace",
        "label": "contract IEAS",
        "numberOfBytes": "20"
      },
      "t_contract(ISchemaRegistry)425": {
        "encoding": "inplace",
        "label": "contract ISchemaRegistry",
        "numberOfBytes": "20"
      },
      "t_mapping(t_address,t_array(t_uint256)dyn_storage)": {
        "encoding": "mapping",
        "key": "t_address",
        "label": "mapping(address => uint256[])",
        "numberOfBytes": "32",
        "value": "t_array(t_uint256)dyn_storage"
      },
      "t_mapping(t_address,t_bool)": {
        "encoding": "mapping",
        "key": "t_address",
        "label": "mapping(address => bool)",
        "numberOfBytes": "32",
        "value": "t_bool"
      },
      "t_mapping(t_address,t_mapping(t_uint256,t_uint256))": {
        "encoding": "mapping",
        "key": "t_address",
        "label": "mapping(address => mapping(uint256 => uint256))",
        "numberOfBytes": "32",
        "value": "t_mapping(t_uint256,t_uint256)"
      },
      "t_mapping(t_uint256,t_struct(Team)667_storage)": {
        "encoding": "mapping",
        "key": "t_uint256",
        "label": "mapping(uint256 => struct GroupRating.Team)",
        "numberOfBytes": "32",
        "value": "t_struct(Team)667_storage"
      },
      "t_mapping(t_uint256,t_uint256)": {
        "encoding": "mapping",
        "key": "t_uint256",
        "label": "mapping(uint256 => uint256)",
        "numberOfBytes": "32",
        "value": "t_uint256"
      },
      "t_struct(Team)667_storage": {
        "encoding": "inplace",
        "label": "struct GroupRating.Team",
        "members": [
          {
            "astId": 663,
            "contract": "contracts/GroupRating.sol:GroupRating",
            "label": "members",
            "offset": 0,
            "slot": "0",
            "type": "t_mapping(t_address,t_bool)"
          },
          {
            "astId": 666,
            "contract": "contracts/GroupRating.sol:GroupRating",
            "label": "memberList",
            "offset": 0,
            "slot": "1",
            "type": "t_array(t_address)dyn_storage"
          }
        ],
        "numberOfBytes": "64"
      },
      "t_uint256": {
        "encoding": "inplace",
        "label": "uint256",
        "numberOfBytes": "32"
      }
    }
  }
}